:020000040800F2
:10000000F09200207D020008033D000875320008D0
:10001000013D000895060008A954000800000000F2
:10002000000000000000000000000000C101000806
:10003000550700080000000015020008294B0008C1
:10004000970200089702000897020008970200082C
:10005000970200089702000897020008970200081C
:10006000970200089702000897020008970200080C
:1000700097020008970200089702000897020008FC
:1000800097020008970200089702000897020008EC
:100090009702000897020008970200085707000817
:1000A00097020008970200089702000897020008CC
:1000B00097020008970200089702000897020008BC
:1000C00097020008970200089702000897020008AC
:1000D00097020008B1530008970200089702000831
:1000E000970200089702000897020008970200088C
:1000F000970200084D4C000897020008970200087C
:1001000097020008993D000897020008970200082E
:10011000970200089702000897020008970200085B
:100120009702000897020008970200089906000845
:10013000970200089702000897020008970200083B
:10014000970200089702000897020008970200082B
:1001500097020008A5060008970200089702000809
:10016000970200089702000897020008970200080B
:10017000970200089702000897020008000000009C
:1001800097020008970200089702000897020008EB
:1001900097020008970200089702000897020008DB
:1001A000970200089702000897020008DFF80CD0B9
:1001B00000F0F6F80048004761560008F092002071
:1001C0002B4B19680868B0E8F04F80F30988BFF33B
:1001D0006F8F4FF0000080F311887047000000001F
:1001E00006480068006880F3088862B661B6BFF30D
:1001F0004F8FBFF36F8F00DF00BF00BF08ED00E03F
:10020000DFF80C00016841F470010160704700BF25
:1002100088ED00E0EFF30980BFF36F8F144B1A688D
:100220001EF0100F08BF20ED108A20E9F04F10607B
:1002300008B44FF0500080F31188BFF34F8FBFF325
:100240006F8F05F0B9FF4FF0000080F3118808BCF4
:1002500019680868B0E8F04F1EF0100F08BFB0EC46
:10026000108A80F30988BFF36F8F704700BF00BF0B
:100270007C000020EFF305807047000006488047AF
:1002800006480047FEE7FEE7FEE7FEE7FEE7FEE77B
:10029000FEE7FEE7FEE7FEE7F94B0008AD010008C8
:1002A0002DE9F05F0546002092469B4688460646AB
:1002B000814640241BE0284641464746224600F03E
:1002C0005EF853465A46C01A914110D3114618465B
:1002D000224600F045F82D1A67EB01084F462246EA
:1002E0000120002100F03CF817EB00094E41201ED0
:1002F000A4F10104DFDC484631462A464346BDE806
:10030000F09F40EA01039B0703D009E008C9121FD0
:1003100008C0042AFAD203E011F8013B00F8013BBF
:10032000521EF9D27047421C10F8011B0029FBD164
:10033000801A704730B50B46014600202022012468
:1003400009E021FA02F59D4205D303FA02F5491BA3
:1003500004FA02F52844151EA2F10102F1DC30BDB9
:10036000202A04DB203A00FA02F100207047914075
:10037000C2F1200320FA03F3194390407047202A6A
:1003800004DB203A21FA02F00021704721FA02F33F
:10039000D040C2F120029140084319467047000046
:1003A000064C074D06E0E06840F0010394E80700C2
:1003B00098471034AC42F6D3FFF7FCFE246C0008DB
:1003C000446C0008704700000146014801F042BE3D
:1003D000684F002010B5044801F04EFE042801D0FB
:1003E000012010BD002010BD684F002038B501204D
:1003F0008DF800009DF80000012801D0012038BDD3
:10040000064801F02FFF040006D14FF400610348B5
:1004100001F0F6FC00B10124204638BD684F0020F1
:10042000134610B50A4601460024034801F0F4FFC4
:1004300000B10124204610BD684F002003484FF052
:10044000FF320121406805F0F9B900000C000020DE
:10045000134610B50A4601460024034802F05EF830
:1004600000B10124204610BD684F002003484FF022
:10047000FF320221406805F0E1B900000C000020C5
:100480007CB511A0114C0068009000220821204684
:1004900000F02BFE4FF47A752B46012269460C487A
:1004A00002F0C4F92B46012201A9094802F016F90D
:1004B00001220821204600F018FE9DF80400C00724
:1004C00000D002207CBD00000500000000180240A2
:1004D000AC50002038B50CA00C4C006800900022F5
:1004E0000821204600F001FE4FF47A73022269468B
:1004F000074802F09BF901220821204600F0F5FD93
:10050000BDE83840FFF7BCBF669900000018024004
:10051000AC500020F8B5054603208DF80000080C0B
:100520008DF80100080A8DF80200104F14468DF86E
:10053000031000220821384600F0D7FD4FF47A76E8
:100540003346042269460A4802F070F9A2B23346E3
:100550002946074802F0C2F808B10120F8BD01227F
:100560000821384600F0C1FD0020F8BD0018024007
:10057000AC5000202DE9F84F16460C46834600F09B
:10058000B9FD8246002001E000F58070A042FBD951
:10059000051BB54200D9354604EB0609244F4FF040
:1005A00002084FF47A7600BF8DF80080200C8DF899
:1005B0000100200A8DF802008DF8034000F03CF89D
:1005C00000220821384600F090FD33460422694697
:1005D000184802F02BF930B9AAB2334659461548EB
:1005E00002F024F910B10120BDE8F88F01220821A2
:1005F000384600F07AFD00BFFFF742FF0228FBD02B
:1006000000F078FDA0EB0A00B04201D90320EBE72F
:100610002C4404F58070AB44484502D9A9EB04058D
:1006200001E04FF480754C45BED30020DCE70000AC
:1006300000180240AC500020F8B513A000680090EC
:1006400000F058FD114E044600220821304600F00B
:100650004CFD4FF47A752B46012269460C4802F096
:10066000E5F801220821304600F03FFDFFF708FFC2
:100670000228FBD000F03EFD001BA84201D9032058
:10068000F8BD0020F8BD0000060000000018024080
:10069000AC500020FEE70000014800F021BA000045
:1006A000EC4F0020014800F01BBA00004C50002025
:1006B00001681823CAB2103AB2FBF3F2054B6FF38C
:1006C0000901032A9B5CC36500D9091D81650846A1
:1006D00070470000EC6B000810B5014600208B69E4
:1006E0008A6A4FF0C07453B1B3F5005F15D072B190
:1006F000012A0CD0022A0AD0032A09D104E01AB137
:10070000012A06D0022A03D1C96AC90100D50120F5
:1007100010BDC96AA142FAD010BD002AF7D0012A43
:10072000F2D0022AF3D0032AF3D010BD30B504680A
:10073000256825F480252560046863608368402B64
:10074000036803D099600068C26030BD9A60006899
:10075000C16030BD70474FF4807000F0CBBB002209
:10076000AFF3008030B50E4B054601209C7B022C78
:1007700015D2987B00241C54987B03EB80004560C5
:100780009D7B03F10C002A54987B421C9A733030F5
:1007900008703A2048702F208870CC70002030BD3F
:1007A000F051002030B5D1E901231A43D1E90335D6
:1007B0002B431A434B690C681A438B691A43D1E9DE
:1007C0000735012C496A046807D01A432A436FF39E
:1007D0000E040A43224302600AE024F4F8442B4347
:1007E00021430B43416803606FF30E010A434260EB
:1007F000002030BD426942EA41014161002070475A
:10080000F8B514460546D1E9000210438A686FF036
:100810001F03C96803EB421242EA412108430090DA
:10082000286100F067FC064609E0601C07D024B18F
:1008300000F060FC801BA04201D90320F8BDA8692C
:100840008006F2D40020F8BDF0B56FF00F05D1E9B5
:10085000003405EB04145B1E23432E018C682F0328
:1008600006EB042423434FEA054C0C8A8E8ACD689C
:10087000097E4FF07F4E07EB04440CEB06560EEB5F
:100880000161012A0CD082683F1107EB05352B432B
:100890002343334302F070420B43134383600FE062
:1008A0008768084A17402A03A2F580523243C56878
:1008B0003A43234305F070450B432B438260C360EA
:1008C0000020F0BDFF0F0FFF2DE9F04116460D4649
:1008D0000746002402F092FD384600F01FF8012878
:1008E00017D102F08BFDBB2002F010FE012810D1C1
:1008F0006F1E09E0BC4201D1002000E0012002F09F
:10090000EFFC3055641CE4B2AC42F3D302F0A0FD1E
:10091000012402F09DFD2046BDE8F08110B504469B
:1009200002F06CFDBA2002F0F1FD012807D1200A87
:1009300002F0ECFD012802D1E0B202F0E7FD012057
:1009400010BD10B5040002D0607910B106E001209E
:1009500010BD00202071204600F006F802206071D2
:1009600001206071002010BD08B50068064988426A
:1009700008D10648016841F480510160006800F424
:100980008050009008BD0000003002403038024026
:1009900070B500EB011290F838301832012B20D0DE
:1009A000012580F83850022380F8393054680A2C29
:1009B00019D0092C17D01389167B1B0443EA066350
:1009C00023431C4CB1B10168CE6926401E43CE6161
:1009D00003681168196151680A291ED009291CD0C1
:1009E00020E0022070BDD368168903F07F4343EAFC
:1009F0000643E5E70668716A21401943716203689E
:100A00001168996151680A2901D009290AD1D16870
:100A1000026821F07F41916204E0D168026821F010
:100A20007F41116280F83950002180F83810084663
:100A300070BD0000F0FFFC0070B5040004D094F815
:100A40003900002510B106E0012070BD84F838504F
:100A5000204600F01FF8022084F839002068016861
:100A6000626821F44031114301602068416BA26843
:100A700021F00701114341632068016CE2686FF3C4
:100A80000D0111430164E563012084F83900002061
:100A900070BD000008B500680649884208D10648C4
:100AA000016841F400010160006800F4000000905A
:100AB00008BD000000B002403038024090F8351008
:100AC000022903D08021416501207047052180F86B
:100AD00035100068016821F00101016000207047B5
:100AE0002DE9F84304464FF00009CDF80090634823
:100AF0004FF41651A56D0068B0FBF1F72E6894F81D
:100B00005C10082000FA01F131420FD021680A6818
:100B100052070BD50A6822F004020A6094F85C10B0
:100B20008840A860606D40F00100606594F85C103A
:100B30004FF0010808FA01F0304208D021684969F5
:100B4000090604D5A860606D40F00200606594F865
:100B50005C1004208840304208D021680968890769
:100B600004D5A860606D40F00400606594F85C10E6
:100B700010208840304218D021680968090714D530
:100B8000A86020680168490304D50068000308D5FF
:100B9000A16C07E00168C90503D4016821F00801D0
:100BA0000160216C09B12046884794F85C10202030
:100BB0008840304231D021680968C9062DD5A86027
:100BC00094F8350005282068016806D0490347D508
:100BD000006800031DD4616C1CE021F01601016067
:100BE0002068416921F080014161206C08B9A06C46
:100BF00020B12068016821F00801016094F85C10C0
:100C00003F208840A86084F8349084F83580216DB6
:100C10001FE0E16B09B120468847606D00282BD0AA
:100C2000606DC00714D0052084F835002068016885
:100C300021F0010101600098401C0090B84203D8E7
:100C400020680068C007F6D184F8349084F83580B5
:100C5000E16C002910D001B02046BDE8F043084700
:100C60000168C905D5D4016821F01001016084F83C
:100C7000349084F83580CCE7BDE8F8835400002038
:100C80002DE9F041044600F035FA06465CB1002536
:100C900084F83450022084F835002068016821F07F
:100CA000010101600DE00120BDE8F08100F022FAB1
:100CB000801B052805D920206065032084F83500B5
:100CC000F2E720680068C007F0D122681168204868
:100CD0000140D4E901031843D4E9033633431843F0
:100CE00063691843A3691843E3691843236A1843E7
:100CF0000843616A042903D1D4E90B13194308435B
:100D0000106020684069666A20F0070130460E4393
:100D1000012704280CD1A06A0643E06A40B12046AE
:100D2000FFF7DAFC20B14020606584F83570BAE73F
:100D3000206846612046FFF7BBFC94F85C203F2109
:100D400091408160656584F835700020ACE7000053
:100D50003F8010F02DE9F0410446866D90F8340094
:100D6000002501280DD0012084F8340094F8357056
:100D70000020012F07D084F8340002252846BDE862
:100D8000F0810220FBE7022784F835706065204679
:100D9000FFF7CCFC94F85C103F208840B0602068DE
:100DA000016841F0160101602068416941F080014D
:100DB0004161206C20B12068016841F008010160A8
:100DC0002068016841F001010160D7E770B5044671
:100DD00000F090F90546601C02D0044800780444F5
:100DE00000F088F9401BA042FAD370BD48000020F3
:100DF0002DE9F041314886B0016800295BD14FF000
:100E00000108C0F800802E480024016841F001016B
:100E100001600068022500F00100059040F2FF60CB
:100E2000CDE9000502AA03260C2782E8D000694616
:100E3000244800F06BF84FF63F00CDE9000502AA08
:100E4000694682E8D000204800F060F802AA6946AE
:100E500082E8D000CDE900851C4800F057F848F240
:100E60003310CDE9000502AA694682E8D00018488F
:100E700000F04CF84FF68370CDE9000502AA6946F0
:100E800082E8D000134800F041F84FF6C070CDE979
:100E9000000502AA694682E8D0000F4800F036F843
:100EA0004CF20370CDE9000502AA694682E8D00041
:100EB0000A4800F02BF806B0BDE8F08134000020AD
:100EC000383802400020024000140240000802406E
:100ED0000018024000100240001C0240000C0240BA
:100EE000B0F5807F03D18021014800F0FAB8704747
:100EF00000180240044910B50A68024202D0086096
:100F0000FFF7EEFF10BD0000143C01402DE9F84F43
:100F1000DFF890B100224FF001084FF0030A4FF0C4
:100F20000F090BF1040E00BF0B6808FA02F423400E
:100F3000A3426ED14D68022D01D0122D0ED1D508DD
:100F400000EB850CDCF820505607F70E09FA07F67F
:100F5000B5430E69BE402E43CCF8206006685500AC
:100F60000F790AFA05FC07F0030726EA0C06AF40E2
:100F7000374307604E68012E05D0022E03D0112E94
:100F800001D0122E0ED18768CE6827EA0C07AE403A
:100F90003E4386604668A6430C79C4F3001494402F
:100FA00034434460C4688E6824EA0C04AE4026438F
:100FB000C6604C68E4006FD53B4C256845F480451D
:100FC0002560246822F0030504F480440094374C23
:100FD0002E19D6F8084895072F0F09FA07F5AC43E4
:100FE000334DA84201D100252EE0324DA84201D157
:100FF000012529E0304DA84201D1022524E02F4DE2
:10100000A84201D103251FE02D4DA84202D104259D
:101010001AE041E02B4DA84201D1052514E02A4DEC
:10102000A84201D106250FE0284DA84201D107258D
:101030000AE0274DA84201D1082505E0254DA84228
:1010400001D1092500E00A25BD402543C6F808580E
:10105000DBF800405D464E689C43F60300D51C4318
:101060002C60DEF8004075464E689C43B60300D500
:101070001C432C600B4D08352C684E689C43F602CF
:1010800000D51C432C60074D0C352C684E689C43E2
:10109000B60200D51C432C60521C102AFFF444AF4A
:1010A000BDE8F88F003C0140443802400030014068
:1010B000000002400004024000080240000C024010
:1010C000001002400014024000180240001C0240C0
:1010D00000200240002402400069084000D00120A6
:1010E000704742694A40426170470AB18161704766
:1010F0000904FBE7014880687047000048000020B1
:1011000002488168027811448160704748000020DD
:101110000B4810B5016841F400710160016841F4A9
:1011200080610160016841F480710160032000F07A
:1011300097F9002000F006F800F024F9002010BD17
:10114000003C024010B5014688B000222D2000F07E
:1011500067F92D2000F058F913480024016841F484
:1011600080710160006805A900F4807006906846EF
:1011700000F072FB00F096FB0C494000B0FBF1F16F
:101180000C480B4A491E026040F2E732C0E90324D2
:10119000C0E9011401F034FD10B1012008B010BD08
:1011A000044801F049FDF9E74038024040420F0091
:1011B00000200040B45100202DE9F041044690F891
:1011C000A00016460F4601281DD0012584F8A05026
:1011D000022084F8A10006EB860000EBC60004EBB9
:1011E000800034223830FFF78CF8324639462046EA
:1011F00002F0BEF92068456284F8A150002084F80E
:10120000A000BDE8F0810220FBE7000070B50400FB
:1012100004D094F8A100002510B106E0012070BDB3
:1012200084F8A050204600F06BF8022084F8A1005A
:101230002068816921F070418161D4E9010108438E
:10124000D4E903121143084321688A691043886175
:1012500021688A68294802408A60A18A0A042168B4
:101260008B68A669334313438B602168CA680240C8
:10127000CA60A18B0B042168CA68266A32431A43EC
:10128000CA6021680A6902400A61A18C22680B04C5
:101290001169A66A31431943116121684A69024004
:1012A0004A61A08D010420684269236B1A430A43F6
:1012B000426194F835002168020294F83600CB6A46
:1012C00003F07F43CB622168CB6A94F8346042EA32
:1012D000004033430343CB622068416B41F0060179
:1012E00041632068816941F001018161C4F8A45023
:1012F000012084F8A100002070BD000000F800F07B
:10130000F0B500681A4987B088422ED103F05EF824
:1013100018480024016841F08061016000680225DE
:1013200000F0806005904FF47040CDE9000502AAFE
:1013300003260E2782E8D00069460F48FFF7E6FD36
:101340004FF6FF70CDE9000502AA694682E8D00099
:101350000A48FFF7DBFDFF20CDE9000502AA694638
:1013600082E8D0000648FFF7D1FD07B0F0BD0000CD
:10137000006801404438024000200240002402403E
:10138000002802401F4808B5016841F4804101600F
:10139000006800F4804000901A48001F016841F086
:1013A00080510160006800F080500090032000F040
:1013B00057F8002211466FF00B0000F031F80022C0
:1013C00011466FF00A0000F02BF8002211466FF072
:1013D000090000F025F800221146501F00F020F807
:1013E00000221146101F00F01BF800220F21901E52
:1013F00000F016F800220F21BDE80840501E00F052
:101400000FB800004438024000F01F020121914053
:101410004009800000F1E020C0F800117047000092
:10142000F0B40E4B1B680C46C3F30223C3F107054F
:10143000042D00D90425191D072901D2002300E03D
:10144000DB1E012606FA05F1491E214099409E4007
:10145000761E16403143F0BC02F054BC0CED00E0A7
:10146000064900F0070208684FF6FF03184040EAFB
:101470000220034A10430860704700000CED00E0B2
:101480000000FA052DE9F8431748016841F0805142
:1014900001600068154F00F08050012600903E6406
:1014A000FFF728FE05464FF47A78114C05E000BF9F
:1014B000FFF720FE401B40450DD86068C003F7D5FC
:1014C0007E64FFF717FE0546464607E0FFF712FE6B
:1014D000401BB04202D90320BDE8F8836068800356
:1014E000F4D50020F8E700004038024000000E422A
:1014F000007000402DE9F84F04460068DFF804A2B0
:10150000814F824DC1074FF001084FF0000601D115
:1015100080073CD5CAF86860FFF7ECFD814605E01E
:10152000FFF7E8FDA0EB0900022878D82868000141
:10153000F6D42078C107764805D06168227A8901FF
:1015400041EA027101602178890711D5016862685A
:10155000237B9201C1F3027142EA036242EA017104
:1015600001603868E16920F01F00491E08433860B7
:10157000CAF86880FFF7BEFD814605E0FFF7BAFDB7
:10158000A0EB090002284AD828680001F6D5206897
:10159000410701D400074CD5CAF87060FFF7AAFDD7
:1015A000814605E0FFF7A6FDA0EB0900022836D82A
:1015B0002868C0438000F5D520784107554814D5E8
:1015C00001682269237D9201C1F3027142EA03623C
:1015D00042EA017101603968226A6FF0FF0321F469
:1015E000F85103EB0222114339602178090710D525
:1015F00001682269C1F30361920142EA0161227E1E
:1016000041EA027101603868616A20F440300843A1
:101610003860CAF87080FFF76DFD074605E048E0C6
:10162000FFF768FDC01B022843D82868C04380002C
:10163000F6D42078800653D534484030016841F014
:10164000805101600068344D00F08050009028689F
:1016500040F480702860FFF74DFD074605E000BFAD
:10166000FFF748FDC01B022823D82868C005F7D51E
:10167000274D143D286810F4407020D0218D01F4CE
:10168000407181421BD02868244920F44070C1F881
:1016900000800E6028602868C00710D0FFF72AFD80
:1016A000064641F2883707E0FFF724FD801BB84269
:1016B00002D90320BDE8F88F28688007F4D5A16A15
:1016C0001248C1F301220830032A13D0016821F423
:1016D000F81101602868218DC1F30B0108432860CF
:1016E0002078C00604D50E4994F82C00C1F8E0011A
:1016F0000020DFE702680B4B22F4F81219400A437E
:101700000260E7E7000047428C38024000380240A0
:10171000843802408838024000700040400E474242
:1017200000104742FFFCFF0F2DE9F0470E46050071
:1017300065D0DFF81481D8F80000F7B200F00F0090
:10174000B04207D288F80070D8F8000000F00F000F
:10175000B04254D128683D4C810712D5400703D5CB
:10176000206840F4E05020602878000703D5206806
:1017700040F4604020602068A96820F0F000084331
:1017800020602878C0072DD03049686808390128C2
:1017900012D0022813D0032811D009688907002924
:1017A0002DDA216821F0030101432160FFF7A2FC3B
:1017B000814641F2883A0EE009688903EFE709683B
:1017C0008901ECE7FFF796FCA0EB0901514502D92E
:1017D0000320BDE8F0872068696800F00C00B0EBDA
:1017E000810FEFD1D8F80010404601F00F01B1424F
:1017F00007D90770006800F00F00B04201D0012047
:10180000E7E72878400705D52068E96820F4E0502C
:10181000084320602878000706D52068296920F44D
:10182000604040EAC100206000F05CF82168084A8E
:10183000C1F30311515CC840064908600020FFF75E
:1018400081FC0020C5E70000003C0240083802404F
:10185000F46B0008540000200F2202600C4A136849
:1018600003F003034360136803F0F003836013681D
:1018700003F4E053C36012684FF4E05303EAD2026A
:1018800002610448006800F00F0008607047000023
:1018900008380240003C02400148006870470000E0
:1018A000540000200448054900680968044AC1F34F
:1018B0008221515CC8407047540000200838024023
:1018C000046C00080448054900680968044AC1F32B
:1018D0004231515CC8407047540000200838024033
:1018E000046C0008154810B5006810F00C0214488C
:1018F00013D01449042A0FD0082A0ED10F4C241FEC
:101900002268236802F03F025B0207D52068C0F31B
:101910008810A0FB010106E0084610BD2168C1F354
:101920008811A1FB00010023FEF7BAFC2168C1F376
:101930000141491C4900B0FBF1F010BD08380240DC
:101940000024F40040787D012DE9F84F050076D0A1
:101950002878DFF8F8B2BE4CC00749D0DBF8001099
:101960005846C1F38101012908D00068C0F3810005
:1019700002280AD1201D0068400206D52068800395
:1019800036D568680028E2D032E06868B0F5803F5C
:1019900010D0B0F5A02F206810D020F48030206047
:1019A000206820F4802020606868A0B1FFF7A2FBC7
:1019B00006460CE0206840F48030F4E740F48020D4
:1019C0002060F7E7FFF796FB801B642873D8206838
:1019D0008003F7D50CE0FFF78DFB064605E000BF5E
:1019E000FFF788FB801B6428F0D820688003F7D4B9
:1019F0002878DFF8608280074FF000093ED5DBF8D9
:101A00000010584611F00C0F09D00068C0F3810097
:101A100002280BD18D48001F0068400206D42068C0
:101A2000800715D5E868012809D111E0E868B8B148
:101A30000120C8F80000FFF75DFB064605E002E163
:101A4000FFF758FB801B0228C0D820688007F7D515
:101A50002068296920F0F80040EAC10020600DE00C
:101A6000C8F80090FFF746FB064604E0FFF742FB8C
:101A7000801B02281FD820688007F7D42878000729
:101A800022D5724E744869696C3671B101210160CA
:101A9000FFF730FB074604E0FFF72CFBC01B0228D2
:101AA00009D830688007F7D50EE0C0F80090FFF73E
:101AB00021FB074605E083E0FFF71CFBC01B022863
:101AC0007ED830688007F7D42878400768D5DFF8DB
:101AD0007CA100270AF1380ADAF80000C0000BD414
:101AE000DAF8001041F08051CAF80010DAF800006E
:101AF000012700F080500090584E3068C00510D487
:101B0000306840F480703060FFF7F4FA009005E030
:101B1000FFF7F0FA0099401A022851D83068C00542
:101B2000F6D54A4EA868683601280FD005283068D7
:101B300010D020F001003060306820F004003060E8
:101B4000A868B8B1FFF7D6FA00900FE0306840F00F
:101B50000100F4E740F004003060F7E7FFF7CAFA4D
:101B60000099411A41F28830814264D83068800778
:101B7000F4D50EE0FFF7BEFA009007E0FFF7BAFADF
:101B80000099411A41F28830814254D83068800768
:101B9000F4D42FB1DAF8001021F08051CAF8001007
:101BA000A869C0B3DBF80010C1F3810102294AD053
:101BB0000228484607D0C8F86000FFF79BFA00E00B
:101BC00039E005463AE04746C8F86000FFF792FA68
:101BD000064604E0FFF78EFA801B02282BD8206807
:101BE0008001F7D4D5E907010843A96A1C4A4908CE
:101BF00002EB01416A6A41EA8211084395F82C1010
:101C000040EA01611148001F016001203866FFF7BA
:101C100071FA054605E014E0FFF76CFA401B022854
:101C200009D820688001F7D50BE000BFFFF762FA02
:101C3000401B022802D90320BDE8F88F20688001EC
:101C4000F4D40020F8E70120F6E70000083802404D
:101C50000038024000004742800E474200700040BA
:101C60000000FFFF70B5040002D0607F10B106E0F5
:101C7000012070BD00202077204600F049F80220A6
:101C800060772168CA204862216853204862204654
:101C900002F048F8FF25042618BB206881681B4A1B
:101CA000114081602168886862681043D4E9042388
:101CB0001A43104388602168E06808612068016960
:101CC000228941EA024101612068C16821F0800156
:101CD000C16020688068800607D4204600F024F8A0
:101CE00018B1206845626677C2E72068016C21F46C
:101CF000802101642068016CA2691143016420689D
:101D0000456201206077002070BD0000BFFF8FFF9B
:101D100000680349884202D10249012008607047E7
:101D2000002800403C0E474270B504460068C16878
:101D300021F0A001C160FFF7DDF905464FF47A7686
:101D400007E000BFFFF7D6F9401BB04201D90320DE
:101D500070BD2068C0688006F4D5002070BD70B5E5
:101D60000D46040003D094F82C0010B107E00120C8
:101D700070BD002084F82D00204600F011F80220EC
:101D800084F82C00211D2068FEF70CFDD4E9000228
:101D90002946FEF759FD012084F82C00002070BD73
:101DA000FFF726B810B5044690F82C00022809D099
:101DB000022084F82C002068FEF71CFD012084F826
:101DC0002C00002010BD000070B5044690F82C00D7
:101DD0000D4602280DD0022084F82C002068FEF762
:101DE0000FFD2868022805D05FF0010084F82C0060
:101DF000002070BD0520F9E710B5FEF7E3FA10BD2D
:101E0000FEB5044603200D4684F83400606C0328B8
:101E100020D0B5F5805F1DD0B5F5006F05D045B178
:101E2000A06B40F00060A06309E0204602F018FDBE
:101E300002E0204602F0EDFCA16B0143A163A06B20
:101E4000012658B1216840F2FF50886384F834605D
:101E50000120FEBDA06B40F08050E4E7211DD4E9D5
:101E600005700EC90095CDE90170206801F09AFF58
:101E700084F834600020FEBD7047F0B5426E120E4B
:101E800093090B70C2F383034B7002F003028A7054
:101E9000426E120CCA70B0F86420120A0A7190F8EF
:101EA00064204A71826E4FF6FF73120E03EA02122B
:101EB000CA80826ECB88C2F3074243EA1213CB80FA
:101EC00002F00F020A72B0F86820C2F30722D309A9
:101ED0004B72C2F380138B72C2F34013CB72C2F306
:101EE00000130B7300264E73446C4FF400770123EC
:101EF0006CB1012C43D0026840F2FF519163816BB9
:101F000041F08051816380F834300120F0BD9207A8
:101F1000120D0A6190F868200C6944EA82020A6195
:101F2000C26E0C69120E44EA92140C61C2F3C20430
:101F30000C7502F007024A75C26EC2F307425409DB
:101F40008C75C2F38204CC759207520F0A76B0F8F2
:101F50006C20C2F307240A7E42EAD4120A760A6988
:101F6000521C42650D7EAD1CAA4042650D7A03FAF3
:101F700005F585656D0A6A43C0E917271CE090F8EE
:101F800068209206920A0A61C26E0C69120E44EA37
:101F900002220A61C26E0C69C2F3074214430C614B
:101FA000B0F86C20C2F307240A69521C4FEA82225F
:101FB0004265C0E916720766C4F3801201F8192F52
:101FC0004FEA84624FEA52624A7010F86C2F4C78E4
:101FD00044EAD2144C7002F07F028A7042684FEAE1
:101FE00012624FEAD214CC70C2F341140C71C2F3E6
:101FF00082044C714FEA82724FEA12728A7142680F
:102000008C79C2F3074244EA92148C71C2F34014F3
:10201000CC710E7202F001024A728288C2F307226A
:102020004FEAD2148C72C2F38014CC72C2F3401403
:102030000C73C2F300144C73C2F381048C7302F06E
:102040000302CA7300794FEA500008744B744FF0D2
:102050000000F0BD426C0A60826C4A60C26C8A600B
:10206000026DCA60426D0A61826D4A61C26D8A6109
:10207000006EC8610020704770B50446B0F850008B
:1020800000250104206802F00CF818B1A16B01438F
:10209000A16304E00021206801F077FE0546C5F346
:1020A000432070BD70B504460068416B4FF00105D8
:1020B000CA0540F23A3149D52A0282632068C26BD0
:1020C0008A43C263206B0007206B22D5800702D4AD
:1020D000206B800609D5206802F014F828B1A16BA6
:1020E0000143A1632046FFF7C7FE216840F2FF507D
:1020F000886384F83450206BC00702D1206B8007BE
:1021000003D5204600F002FA70BD204600F002FA26
:1021100070BD0006FCD5206B800609D5206801F053
:10212000F1FF28B1A16B0143A1632046FFF7A4FE94
:10213000206BC007ECD1206B8007E9D42068C16A0E
:1021400021F00801C16284F83450DEE7426B52048A
:1021500010D54FF480418163266A002506EB850186
:10216000206801F048FE6D1C082DF7D3206A20304E
:10217000206270BD426B120410D54FF400418163A0
:10218000A66A0025206801F023FE46F825006D1C94
:10219000082DF7D3A06A2030A06270BD426B40F2D8
:1021A0003A231A42F9D0426B920703D5A26B42F050
:1021B0000202A263426B120703D5A26B42F008022F
:1021C000A263426B920603D5A26B42F02002A26387
:1021D000426BD20603D5A26B42F01002A263426B9F
:1021E000920503D5A26B42F00802A26340F2FF728F
:1021F00082632068C26B8A43C263206B000623D5CA
:10220000206C58B115490165206CFEF757FC002879
:10221000C3D0206CBDE8704002F0A9B9E06B58B1A2
:102220000F490165E06BFEF749FC0028B5D0E06B73
:10223000BDE8704002F070B90020A06384F834500B
:102240002046FFF7D9FD70BD206B0007FBD584F851
:1022500034502046FFF710FE70BD00006F450008A7
:102260001945000870B5040004D094F83400002526
:1022700010B105E0012070BD2577204600F038F848
:10228000032084F83400204600F008F8A563256395
:10229000012084F83400002070BD0000FEB5002548
:1022A000044676200095CDE901502B462A46294662
:1022B000206801F077FD0D4E46F8A05F206801F020
:1022C00083FD012535600220FEF780FD204602F0E7
:1022D0004FFA20B9204602F0D8F9002805D084F83A
:1022E0003450A16B0143A1630120FEBD0080254253
:1022F0002DE9F04F054600683D4987B0884274D10A
:102300003C4800683B4940F40060086008680224CB
:1023100000F4006005904FF4F850CDE9000402AAE3
:10232000002003264FF00C0882E84101694632483C
:10233000FEF7ECFD02AA002082E841010427CDE966
:10234000007469462D48FEF7E1FD2E4C2C484FF0F5
:102350000068C4E9000800204FF48069A060C4E967
:102360000309B8024FF4804BC4E9050BC4E90976B0
:102370004FF0200A0020C4E907A07E05B7102046D0
:10238000C4E90B67FEF77CFC18B19A211EA003F08C
:102390008CF8EC63A5631B4C194860344830C4E9E1
:1023A00000084020A0600020C4E90309C4E907A098
:1023B0000420606204F12802032082E8C1004FF487
:1023C0008051C4E9051B2046FEF75AFC18B1AF2125
:1023D0000DA003F06AF82C64002205213120A563CA
:1023E000FFF71EF83120FFF70FF807B0BDE8F08FB8
:1023F000002C01404438024000080240000C02401A
:1024000058640240EC4F00202E2E2F5372632F731E
:1024100064696F2E630000002DE9F043154687B014
:102420001F460A00044607D094F83400012807D05C
:10243000022007B0BDE8F083A06B40F0006008E028
:102440000020A063E36DE919994204D9A06B40F024
:102450000070A06351E0032184F8341021688146A4
:10246000C8622168CB6B43F49573CB63E36B24495B
:102470004FEA4728D963E36B2249D964E16B4FEAFD
:10248000980308652168E06B8031FEF763FC1E4805
:1024900001260660606C012800D06D024FF0FF300D
:1024A000CDE900089020029002200596CDE90309AD
:1024B0006946206801F053FC4FF40071206801F078
:1024C000D3FC40F2FF5880B9012F06D98220206347
:1024D0002946206801F056FD05E081202063294649
:1024E000206801F068FD0028A3D02268C2F8388077
:1024F000A16B0143A16384F83460012099E70000D7
:10250000DB440008854400088C85254210B5FDF7A2
:1025100095FF10BD10B5FDF7A9FF10BD2DE9F04FD7
:1025200087B01F4615465FEA010B044607D094F8B2
:102530003400012807D0022007B0BDE8F08FA06B5F
:1025400040F0006008E00020A063E26DE9199142CC
:1025500004D9A06B40F00070A06339E0032184F837
:10256000341021688046C8622168CA6B42F01A02A2
:10257000CA63226C2349D163226C2349D164216C44
:102580000865606C012800D06D024FF4007120686E
:1025900001F06AFC012640F2FF5988B94FF0900A19
:1025A000012F06D9A02020632946206801F0C4FD30
:1025B00005E0C4F830A02946206801F0D6FD48B1F6
:1025C0002268C2F83890A16B0143A16384F834609B
:1025D0000120B1E70D48066022687D02AB0859462C
:1025E0008032206CFEF7B6FB4FF0FF308DE82104FF
:1025F000CDE90486CDF80C806946206801F0AFFB78
:10260000002099E761450008854400088C85254233
:1026100070B5040005D00025A56294F8510010B1F2
:1026200006E0012070BD84F85050204600F030F8DC
:10263000022084F851002068016821F04001016007
:10264000D4E901010843D4E9031211430843616945
:102650000843218B01F400710843E1690843216AB2
:102660000843A16A084321680860A069042101EABF
:102670001040616A0843216848602068C16921F4FC
:102680000061C1616565012084F85100002070BDC2
:1026900000B500680E4987B0884216D10D48016820
:1026A00041F4805101600068694600F48050059053
:1026B0003820009002200190012002900320039016
:1026C000052004900448FEF721FC07B000BD00007F
:1026D0000030014044380240000402402DE9F84F28
:1026E000044640680026984617460D464FF00409F8
:1026F000B0F5827F01D1A06890B194F85000012814
:1027000019D04FF0010B84F850B0FEF7F3FC0090A5
:1027100094F851004FF0000A01280ED002267FE005
:1027200084F8519013460A462046CDF8008000F008
:1027300031F9BDE8F88F0220FBE7002D6FD0002FA4
:102740006DD084F85190C4F854A0A563A787E7879B
:10275000C4F830A0A4F834A0A4F836A0C4F840A06F
:10276000C4F844A0A0684FF40047B84204D12068E0
:10277000016821F48041016020680168490603D4A2
:10278000016841F040010160E068B8B133E02068C1
:102790008168C90706D0007B05F8010BE08F401E59
:1027A000E0870BE0B8F1000F23D0B8F1FF3F05D070
:1027B000FEF7A0FC0099411A41451AD2E08F00288B
:1027C000E5D11BE020688168C90706D0C06825F8FC
:1027D000020BE08F401EE0870DE0B8F1000F08D03B
:1027E000B8F1FF3F07D0FEF785FC0099411A41453B
:1027F00001D3032614E0E08F0028E3D16068B0F530
:10280000827F0AD1A068B84202D0B0F5806F04D1AF
:102810002068016821F040010160606D00B101266F
:1028200084F851B084F850A0304682E72DE9F84F83
:10283000044690F850000026994617460D46012898
:102840000DD04FF0010B84F850B0FEF753FC8046DA
:1028500094F85100B246012804D0022694E00220E8
:10286000BDE8F88F002D7BD0002F79D0032084F8AD
:102870005100C4F854A02563A786E786C4F838A0A1
:10288000A4F83CA0A4F83EA0C4F844A0C4F840A01A
:10289000A068B0F5004F04D12068016841F4804180
:1028A000016020680168490603D4016841F04001D5
:1028B0000160E068B0F5006F606804D030B3E08E6E
:1028C000012823D03EE010B1E08E01281AD135F85E
:1028D000021B206805E020688168890706D535F865
:1028E000021BC160E08E401EE0860BE0B9F1000FD4
:1028F00034D0B9F1FF3F05D0FEF7FCFBA0EB080197
:1029000049452BD2E08E0028E5D11EE0216815F85C
:10291000010B087306E020688168890706D515F861
:10292000011B0173E08E401EE0860BE0B9F1000F41
:1029300014D0B9F1FF3F05D0FEF7DCFBA0EB080196
:1029400049450BD2E08E0028E5D14B4601220221F9
:102950002046CDF8008002F05BF810B1032613E0AA
:1029600011E042464946204602F042F818B10126DD
:102970002020606508E0A06818B92068C1688068F8
:102980000090606D00B1012684F851B084F850A029
:10299000304665E72DE9F84F044690F850000026D0
:1029A0000A9F9A4693460D464FF0010801280ED023
:1029B000012084F85000FEF79DFB814694F85100F9
:1029C000616801280CD0B1F5827F07D102E00220B6
:1029D000BDE8F88FA16809B9042801D00226BDE03E
:1029E00055B1BBF1000F07D0BAF1000F04D094F835
:1029F0005100012802D004E00126AFE0052084F850
:102A0000510000206065C4F838B0A4F83EA0A4F8D6
:102A10003CA02563A4F836A0A4F834A02064606428
:102A200020680168490603D4016841F04001016053
:102A3000E068B0F5006F606804D0E8B3E08E01286C
:102A40003BD06AE010B1E08E01282ED1216835F824
:102A5000020BC860E08E401EE08626E0B8F1000F51
:102A60000DD0E08E58B120688168890707D535F808
:102A7000021BC160E08E401EE0864FF00008E08F30
:102A800058B120688168C90707D0C0682BF8020BCD
:102A9000E08F401EE0874FF00108781C05D0FEF75C
:102AA00029FBA0EB0900B84246D2E08E0028D5D120
:102AB000E08F0028D2D136E0FFE7216815F8010B3E
:102AC0000873E08E401EE08627E000BFB8F1000FDB
:102AD0000DD0E08E58B120688168890707D515F8B8
:102AE000011B0173E08E401EE0864FF00008E08F6E
:102AF00058B120688168C90707D0C0680BF8010B7E
:102B0000E08F401EE0874FF00108781C05D0FEF7EB
:102B1000F1FAA0EB0900B8420ED2E08E0028D5D120
:102B2000E08F0028D2D13B46012202212046CDF879
:102B3000009001F06DFF08B103260FE04A463946C8
:102B4000204601F055FF18B101262020606505E000
:102B5000A06818B92068C16880680090012084F8D6
:102B60005100002084F85000304631E74FF0E0215A
:102B70000428086903D020F004000861704740F081
:102B80000400FAE710B5401EB0F1807F01D30120A8
:102B900010BD4FF0E02460610F21601701F0B2F822
:102BA0000020A06107202061002010BD7047704701
:102BB00030B590F83820012A20D0012280F8382042
:102BC000022380F8393003685C6824F070045C608C
:102BD00003685C680D682C435C6003689C6824F0A3
:102BE00080049C6003689C6849680C439C6080F882
:102BF0003920002180F83810084630BD022030BD51
:102C000010B5040003D094F8390010B107E001209A
:102C100010BD002084F83800204600F00CF8022097
:102C200084F83900211D206802F016F8012084F88C
:102C30003900002010BD70470168CA6842F00102E7
:102C4000CA600068016841F001010160002070471E
:102C5000704770B50446006801694FF00005C9432C
:102C6000890715D4C168C943890711D4E91E0161D8
:102C700001202076206880698007204602D0FFF777
:102C8000E7FF04E000F0B2F8204600F047F92576AF
:102C900020680169C943490717D4C168C943490776
:102CA00013D46FF00401016102202076206880694E
:102CB00010F4407F204602D0FFF7CAFF04E000F086
:102CC00095F8204600F02AF9257620680169C94365
:102CD000090716D4C168C943090712D46FF0080167
:102CE0000161042020762068C0698007204602D058
:102CF000FFF7AEFF04E000F079F8204600F00EF98F
:102D0000257620680169C943C90617D4C168C9433B
:102D1000C90613D46FF010010161082020762068E5
:102D2000C06910F4407F204602D0FFF791FF04E015
:102D300000F05CF8204600F0F1F825762068016983
:102D4000C943C90708D1C168C943C90704D1891E4D
:102D50000161204600F000F920680169C9430906B5
:102D600009D4C168C943090605D46FF08001016127
:102D70002046FFF71BFF20680169C943490609D4B3
:102D8000C168C943490605D46FF04001016120467E
:102D900000F0ECF820680169C94389060BD4C168CA
:102DA000C943890607D46FF0200101612046BDE8C0
:102DB0007040FFF7FCBE70BD00B50068094985B0E2
:102DC00088420CD14014009002200021CDE901017D
:102DD0000321CDE9031069460348FEF797F805B0D3
:102DE00000BD000000080040000C0240704770B5B4
:102DF000044690F838000D4601280DD0012684F8CD
:102E00003860022084F8390042B1042A18D0082A18
:102E10002AD00C2A4DD139E0022070BD206801F083
:102E200087FF2068816941F008018161206881691C
:102E300021F004018161206881692A69114311E050
:102E4000206801F0A1FF2068816941F4006181617F
:102E50002068816921F480618161206881692A6923
:102E600041EA0221816124E0206801F0BFFF20686F
:102E7000C16941F00801C1612068C16921F0040104
:102E8000C1612068C1692A69114311E0206801F01D
:102E9000DDFF2068C16941F40061C1612068C1693A
:102EA00021F48061C1612068C1692A6941EA022177
:102EB000C16184F83960002084F8380070BD10B515
:102EC000040003D094F8390010B107E0012010BDD0
:102ED000002084F83800204600F00CF8022084F826
:102EE0003900211D206801F0B7FE012084F8390067
:102EF000002010BD08B500680649884208D1064880
:102F0000016841F004010160006800F004000090D5
:102F100008BD000000080040403802407047000033
:102F200010B504460068012201F0F6FE0849206849
:102F3000884202D00749884203D1416C41F40041E4
:102F400041642068016841F001010160002010BD6A
:102F5000000001400004014000680349884201D19B
:102F6000FEF7CEB870470000002000407047704761
:102F700070B5026804461068D168536910F00F0FED
:102F800051D003F0010501F4907635435DD0C207BE
:102F900005D0CA0503D5E26B42F00102E2634207A5
:102FA00005D5DA0703D0E26B42F00202E263820742
:102FB00005D5DA0703D0E26B42F00402E2630207B0
:102FC00005D5DA0703D0E26B42F00802E263E26B58
:102FD000002A34D0800604D5880602D5204601F0A8
:102FE000CFFF20684069E16BC0F3801001F0080159
:102FF0000143204624D001F0B5FF2068416949060D
:103000001AD5416921F040014161606BA0B11B49B3
:103010000165606BFDF752FD002810D0606B016DFB
:10302000BDE87040084783060FD58B060DD52046B6
:10303000BDE8704001F0A4BF2046FFF798FF70BDC7
:10304000FFF795FF0020E06370BD030606D50B0671
:1030500004D52046BDE8704002F046B94006F3D5DD
:103060004806F1D5D168204621F04001D1602021E9
:1030700084F8391000F0FDF870BD0000554F0008CD
:1030800070B5040004D094F83900002510B106E0B2
:10309000012070BD84F83850204600F023F8242029
:1030A00084F839002068C16821F40051C1602046CD
:1030B00001F0C4FF2068016921F49041016120689A
:1030C000416921F02A0141612068C16841F4005141
:1030D000C160E563202084F8390084F83A000020BC
:1030E00070BD000010B504460068154986B08842DE
:1030F00024D11448016841F010010160006869465C
:1031000000F0100005904FF4C06000900220019084
:103110000120029003200390072004900A48FDF745
:10312000F5FE002205212520FEF77AF92520FEF77D
:103130006BF92068C16841F01001C16006B010BD94
:1031400000100140443802400000024090F83A303C
:10315000202B1DD1D1B1CAB190F83830012B17D036
:1031600081628285C2850021C163222280F83A20D3
:1031700080F8381001684A6942F001024A6100682B
:10318000C16841F49071C160002070470120704710
:10319000022070470649074B08784A781A54401CA9
:1031A00008700122491CA3F14000FFF7CFBF0000C7
:1031B00044000020805100202DE9F843044690F897
:1031C00039001F4616460D46202850D1A5B19EB1A4
:1031D00094F8380001284AD0012084F838004FF0D4
:1031E0000008C4F83C80212084F83900FDF782FFF4
:1031F000A6848146E68426E00120BDE8F883E08CC1
:10320000401EE084A0684B46B0F5805F4FF000029E
:103210004FF080012046009703D002F096F8E8B9FD
:103220000DE002F092F8C8B928882168C0F30800C0
:103230004860206908B16D1C05E0AD1C03E0216801
:1032400015F8010B4860E08C0028D8D14B460022CD
:1032500040212046009702F078F808B10320CCE71F
:10326000202084F8390084F838800020C5E7022047
:10327000C3E77047FEE703E00221491C0A29FCDB93
:10328000401E80B2F8D2704770B500F0A5F8124D1C
:103290004FF40054002221462846FDF726FF0A205D
:1032A000FFF7E9FF012204210C48FDF71EFF0A2069
:1032B000FFF7E1FF012221462846FDF716FF0A200D
:1032C000FFF7D9FF002221462846FDF70EFFBDE893
:1032D00070400A20FFF7CFBF000802400004024000
:1032E0002DE9F0471F4F8146012204213846FDF7A2
:1032F000FCFEDFF874804FF4005600223146404651
:10330000FDF7F3FE00F056F8BA460024474668067B
:103310004FEA1068012231463846FDF7E6FE0A20E2
:10332000FFF7A9FF04215046FDF7D6FE00F0010586
:1033300045EA0805002231463846FDF7D6FE0A2048
:10334000FFF799FF641CE4B2082CE0D3B9F1000F39
:1033500002D000F00BF801E0FFF796FF2846BDE829
:10336000F0870000000402400008024070B500F041
:1033700033F8002204210D48FDF7B7FE0A20FFF7BD
:103380007AFF01220A4D540321462846FDF7ADFE7F
:103390000A20FFF770FF002221462846FDF7A5FE10
:1033A000BDE870400A20FFF766BF0000000402403D
:1033B0000008024000B585B0002001900120029075
:1033C000032003900420009069460248FDF79EFD0B
:1033D00005B000BD0004024000B585B00120019099
:1033E0000290032003900420009069460248FDF7F4
:1033F0008DFD05B000BD00000004024070B5FFF770
:10340000EBFF114C012204212046FDF76EFE012244
:103410000E4E550329463046FDF767FE0A20FFF79A
:103420002AFF002204212046FDF75FFE0A20FFF755
:1034300022FF002229463046FDF757FEBDE87040C6
:103440000A20FFF718BF00000004024000080240F5
:1034500070B5134D4FF40054002221462846FDF765
:1034600044FE0A20FFF707FF0E4E002204213046DB
:10347000FDF73BFE0A20FFF7FEFE0122214628460B
:10348000FDF733FE0A20FFF7F6FE01220421304645
:10349000FDF72BFEBDE870400A20FFF7ECBE0000F0
:1034A000000802400004024070B5164D4FF400546D
:1034B000002221462846FDF718FE0A20FFF7DBFE12
:1034C000114E012204213046FDF70FFE0A20FFF7BE
:1034D000D2FE012221462846FDF707FEFFF76AFFCC
:1034E0000A20FFF7C8FE002221462846FDF7FDFD11
:1034F00004213046FDF7F0FD08B1002070BD012029
:1035000070BD000000080240000402402DE9F041B7
:103510000546FFF761FFDFF85080144F00244FF499
:103520000056280601D5012200E000220421404671
:10353000FDF7DBFD0A20FFF79EFE012231463846EB
:10354000FDF7D3FD0A20FFF796FE002231463846EC
:10355000FDF7CBFD6806641C050EE4B2082CE0D331
:10356000BDE8F041FFF7A0BF0004024000080240A0
:10357000F0B503688C88DD68C5F30B452C44250441
:10358000882404EBC2141E5906F470461E510368C9
:103590000F68DE68C6F30B46761C3E442E431E5170
:1035A00004688B89E568C5F30A052B441D048C2348
:1035B00003EBC213E65806F47046E65004688F68C1
:1035C000E668C6F30A06761C3E442E43E650942372
:1035D000046803EBC213E55825F00705E5500568BC
:1035E0000C69EC5091F831300C7E1F0226069C24A9
:1035F000056804EBC21491F8323055F804C04FF05E
:10360000000C45F804C091F8305046EA03433D43AE
:103610001D4303681D519823046803EBC213E5584A
:1036200025F0FF05E55005684C69EC50A0230468BF
:1036300003EBC213E55840F20776B543E550D1E9F4
:1036400007452C430568EC50AC23046803EBC21318
:10365000E55844F803C005684C6AEC500B698BB31D
:10366000012B32D0042B32D0022B30D0032B2ED0A2
:10367000072B2CD00123B024056804EBC2142E596B
:1036800006F0E0262E51D1E90065AD1B0E8D5D439D
:103690005E43ED1C45EA064305682B51B4230468DC
:1036A00003EBC213E5586FF30A05E5500468C96AD5
:1036B000E1500068842101EBC211425842F001023E
:1036C0004250F0BDFFE70423D5E70323D3E70223ED
:1036D000D1E70000084910B5064808600846FDF724
:1036E00030F9002805D0BDE81040422103A001F0C8
:1036F000DCBE10BD00300240040000202E2E2F53EF
:1037000072632F6372632E6300000000114810B5CE
:103710000F49016000210222C0E90112C160C0E925
:103720000A1201634163FDF787F918B149210AA024
:1037300001F0BBFE01210748FDF72AF9002805D05A
:10374000BDE810404E2104A001F0AFBE10BD000046
:1037500000B002402C0E00202E2E2F5372632F64D7
:103760006D6132642E6300001C4808B502680021B8
:1037700042F4800202600068194A00F48000009060
:103780001848C0E90021802282609200C260520085
:10379000C0E9042192018161C0E90712042242625A
:1037A0000322C0E90A210163FDF76AFA18B15B211F
:1037B0000DA001F07AFE002205213B20FDF730FE2E
:1037C0003B20FDF721FE002205214520FDF728FEC4
:1037D000BDE808404520FDF717BE00003038024024
:1037E00010640240CC0D00202E2E2F5372632F64E4
:1037F0006D612E630000000010B506490648FCF715
:10380000AEFF044CA41EA11D20700448FCF7A7FFC6
:10381000607010BD16000020A86B0008200000207A
:1038200000B5184887B01649016001210022C0E99F
:10383000011204212023C0E90313402343614FF404
:10384000C073C0E906324A0202628A024262CA02B8
:10385000826207220220CDE90002CDE90212032193
:10386000CDE90410069069460648FEF778FA00286C
:1038700003D05B2104A001F018FE07B000BD0000DA
:10388000400100A06C0E00202E2E2F5372632F6675
:103890006D632E630000000010B58AB014220B493E
:1038A0006846FCF72EFD0021684601F0FFFF084C3A
:1038B000064914222060143105A8FCF722FD0021DE
:1038C00005A801F0F3FF60600AB010BDC46B0008EA
:1038D0003C0000202DE9F04F6B4887B000240168C0
:1038E00041F480710160016801F480710591016803
:1038F00041F004010160016801F0040105910168D3
:1039000041F020010160016801F02001059101688A
:1039100041F080010160016801F0800105910168BA
:1039200041F002010160016801F0020105910168A6
:1039300041F400710160016801F4007105910168B2
:1039400041F040010160016801F04001059101680A
:1039500041F010010160016801F01001059101685A
:1039600041F008010160016801F00801059101685A
:1039700041F480610160016801F480610591016892
:1039800041F0010101600068012200F00100DFF850
:10399000FCA05603059031465046FDF7A6FB0122D8
:1039A000DFF8ECB0D70239465846FDF79EFB0022FF
:1039B00004213848FDF799FB4FF480580022414616
:1039C0003548FDF792FB002288213448FDF78DFB36
:1039D0004FF40049002249463148FDF786FB70113B
:1039E000009030480125CDE9010569465846FDF7AC
:1039F0008DFA0096CDE90154694650460394FDF7CF
:103A000085FA0097CDE90154694658460394FDF7BD
:103A10007DFA0420CDE900050320CDE90240694686
:103A20001C48FDF773FACDF80080CDE901546946D2
:103A300019480395FDF76AFA0820CDE90005022030
:103A4000CDE9024069461548FDF760FA8020CDE9CE
:103A5000000569461148CDE90245FDF757FACDF852
:103A60000090CDE9015469460D480394FDF74EFAE4
:103A7000002205211720FDF7D3FC1720FDF7C4FC19
:103A800007B0BDE8F08F0000303802400008024067
:103A90000020024000040240000C024000180240D6
:103AA000000002400000211030B52A488DB028499E
:103AB0000024C0E9001484601321C460C0E90441FB
:103AC00002254121C0E906511921016240F261310C
:103AD000416240F2F911816240F22941C16240F233
:103AE0000F21016380F8344080F8354080F836407B
:103AF000FDF78CFB18B1542117A001F0D6FC4FF450
:103B000048704FF4F071CDE90040CDE90241FF2249
:103B10000495CDE905244FF48062079205220892AE
:103B2000114ACDE90A018DF8304009928DF83140F3
:103B30008DF83240002269460648FDF73DFB00281B
:103B400003D0682104A001F0B0FC0DB030BD00002E
:103B500000680140A00E00202E2E2F5372632F6CA0
:103B60007464632E630000000000D0D00C4810B5D0
:103B70000A49016000217F22C0E90112FF22C0E949
:103B8000032141618161FEF76DF8002805D0BDE891
:103B900010404A2103A001F088BC10BD002800405D
:103BA000480F00202E2E2F5372632F7274632E63E2
:103BB0000000000006480549016000214160816065
:103BC000C16001614161042181617047002C0140A5
:103BD000684F0020114810B50F4901604FF4827101
:103BE0004160002102228160C0E90312012242618A
:103BF0005202C0E906210162416281620A21C1626A
:103C0000FEF706FD002805D0BDE810404F2104A0B6
:103C100001F04BBC10BD000000300140AC50002052
:103C20002E2E2F5372632F7370692E6300000000D5
:103C300010B51B488AB01949016059210024C0E918
:103C4000011441F28831C0E90314FFF738F918B1C3
:103C5000482114A001F029FC079407A910480894F2
:103C6000FEF7A6FF18B14F210EA001F01EFC602048
:103C700000904FF4FA60CDE9010404226946084837
:103C80000494FFF7B4F818B1582106A001F00DFC18
:103C90000348FFF791F80AB010BD0000000800408B
:103CA000045100202E2E2F5372632F74696D2E63E2
:103CB000000000000D4810B50B4901604FF4E131E0
:103CC0004160002181600C22C160C0E90412816161
:103CD000C161FFF7D5F9002805D0BDE810404D219E
:103CE00003A001F0E2BB10BD0010014040510020D4
:103CF0002E2E2F5372632F75736172742E63000022
:103D0000FEE770470907090E002806DA00F00F00E9
:103D100000F1E02080F8141D704700F1E02080F8E9
:103D20000014704770B504460068C168490614D491
:103D30004FF0FF31C160FDF7DDF905464FF47A76AB
:103D400007E000BFFDF7D6F9401BB04201D90320C0
:103D500070BD2068C0684006F4D5002070BD0A68B8
:103D600042624A688262D1E902231A43D1E90431EE
:103D70000B43C16A1A4321F0F7011143C1620020CD
:103D80007047006800F00300704708B5084414301D
:103D90000090006808BD00000148FEF783B90000EC
:103DA000684F002070B50DF1100C11439CE87000B5
:103DB0002343194329434268314347F6FF639A433B
:103DC0000A434260002070BD03210160002070475B
:103DD000D0F8800070470A688260D1E901231A4355
:103DE000D1E903310B43C1681A436FF30B0111434F
:103DF000C160002070470968C0F88010002070473B
:103E000010B586B004463720CDE90010402002905E
:103E1000002003904FF48060049069462046FFF72D
:103E2000DAFF41F288323721204600F0B7F906B0B8
:103E300010BD000010B504460A4886B00143292091
:103E4000CDE9001040200290002003904FF48060E4
:103E5000049069462046FFF7BEFF204600F054FA62
:103E600006B010BD0000108010B586B004461020CA
:103E7000CDE9001040200290002003904FF48060B4
:103E8000049069462046FFF7A6FF41F288321021D0
:103E9000204600F083F906B010BD10B586B0044688
:103EA0000620CDE9001040200290002003904FF43E
:103EB0008060049069462046FFF78DFF41F288320A
:103EC0000621204600F06AF906B010BD30B585B075
:103ED00000240546009401944FF480600294CDE9DB
:103EE000034069462846FFF776FF0B484FF4FA5126
:103EF0000068B0FBF1F041F288314843401E03D224
:103F00004FF0004005B030BD696B0906F6D540F2B0
:103F1000FF50A8632046F5E75400002070B585B037
:103F200004464FF4D570009008204026CDE90106E4
:103F30000025C001CDE9035069462046FFF74BFF3D
:103F40000F484FF4FA510068B0FBF1F041F28831AC
:103F50004843401E02D24FF000450DE0616B11F066
:103F6000450FF6D0606B400702D5A663042503E039
:103F7000606B400600D5A66305B0284670BD000002
:103F80005400002010B586B004461220CDE9001080
:103F900040200290002003904FF480600490694616
:103FA0002046FFF718FF41F288321221204600F028
:103FB000F5F806B010BD10B586B004461120CDE965
:103FC000001040200290002003904FF48060049085
:103FD00069462046FFF7FFFE41F288321121204654
:103FE00000F0DCF806B010BD10B586B0044607201E
:103FF000CDE9002040200290002003904FF4806023
:10400000049069462046FFF7E6FE41F28832072118
:10401000204600F0C3F806B010BD10B586B00446C7
:1040200000210220CDE90010C020CDE902014FF4AB
:104030008060049069462046FFF7CDFE204600F0E0
:104040003BF906B010BD10B586B004460920CDE995
:104050000010C0200290002003904FF48060049074
:1040600069462046FFF7B7FE204600F025F906B066
:1040700010BD10B586B0044600213320CDE90010F4
:104080004020CDE902010001049069462046FFF777
:10409000A2FE41F288323321204600F07FF806B0BC
:1040A00010BD10B586B004460D20CDE900104020AB
:1040B0000290002003904FF48060049069462046EF
:1040C000FFF789FE41F288320D21204600F066F8A4
:1040D00006B010BD30B585B00C4605460021032062
:1040E000CDE900104020CDE90201000104906946AD
:1040F0002846FFF770FE22460321284600F024F9E7
:1041000005B030BD10B586B0044600210C20CDE9C5
:1041100000104020CDE902010001049069462046CC
:10412000FFF759FE034A0C21204600F037F806B08D
:1041300010BD000000E1F50510B586B00446192059
:10414000CDE9001040200290002003904FF48060E1
:10415000049069462046FFF73EFE41F2883219215D
:10416000204600F01BF806B010BD10B586B004461E
:104170001820CDE9001040200290002003904FF459
:104180008060049069462046FFF725FE41F28832A0
:104190001821204600F002F806B010BD444B10B5BF
:1041A0001B684FF4FA54B3FBF4F353435B1E02D283
:1041B0004FF0004010BD426B12F0450FF6D0426B3D
:1041C000520703D504218163084610BD426BD20714
:1041D00002D00121816303E00269D2B28A4201D098
:1041E000012010BD40F2FF5181630021FFF7CDFD9A
:1041F0003049084201D1002010BD002802DA4FF0FA
:10420000007010BD410001D5402010BD810001D5D6
:10421000802010BDC10002D54FF4807010BD010197
:1042200002D54FF4007010BD410102D54FF48060FB
:1042300010BDC10102D54FF4006010BD010202D5CE
:104240004FF4805010BD410202D54FF4005010BD14
:10425000810202D54FF4804010BDC10202D54FF457
:10426000004010BD410302D54FF4003010BD810362
:1042700002D54FF4802010BDC10302D54FF40020B9
:1042800010BD010402D54FF4801010BD410402D5C9
:104290004FF4001010BD810402D54FF4800010BD12
:1042A000000702D54FF4000010BD4FF4803010BD60
:1042B0005400002008E0FFFD12494FF4FA5209684B
:1042C000B1FBF2F141F288325143491E02D24FF064
:1042D00000407047426B12F0450FF6D0416B490722
:1042E00003D50421816308467047416BC90703D099
:1042F000012181630846704740F2FF51816300202D
:1043000070470000540000200E494FF4FA5209682B
:10431000B1FBF2F141F288325143491E02D24FF013
:1043200000407047426B12F0450FF6D0416B4907D1
:1043300003D5042181630846704740F2FF51816331
:1043400000207047540000201F4B10B51B684FF42D
:10435000FA54B3FBF4F341F2883463435B1E02D298
:104360004FF0004010BD446B14F0450FF6D0436B86
:104370005B0703D504218163084610BD436BDB074F
:1043800002D00121816303E00369DBB28B4201D0DB
:10439000012010BD40F2FF5181630021FFF7F5FCC1
:1043A00010F4604F04D0410406D54FF4005010BD06
:1043B000000C1080002010BD000402D54FF4805086
:1043C00010BD4FF4803010BD540000202DE9F8439B
:1043D000DFF8848098F8000000283AD11F4C0027AD
:1043E000012508260097C4E90056C4E902574FF496
:1043F00080694A4621461A48FDF7E6FC0120FCF791
:10440000E5FC0220C4E90006C4E902574A462146F9
:104410001348FDF7D9FC0320C4E900064A462146AB
:104420000F48C4E90267FDF7CFFC40F2312000904D
:10443000C4E902500421C4E900164A46214608484E
:10444000FDF7C2FC40F26A510548FDF7ABFC88F865
:104450000050BDE8F883000000000020BC0D0020E3
:104460006C0E002010B5064C01202070FBF7B2FF47
:1044700018B9207820F001002070207810BD0000CD
:104480000C00002010B5846BE06B406D012803D058
:10449000206C406D01281CD1216840F2FF508863D8
:1044A0002068C16B21F49D71C163A06B40F0804016
:1044B000A0632046FDF7E0FD062801D0052805D1C0
:1044C0002068FFF71FFEA16B0843A063012084F85A
:1044D00034002046FDF7D0FC10BD10B5846B206B76
:1044E000822809D12068FFF70DFE28B1A16B014396
:1044F000A1632046FDF7C0FC2068C16A21F00801D5
:10450000C162216840F2FF508863012084F83400C2
:104510002046FDF7FBFF10BD70B5846B0025E06BF6
:1045200000B1E563206C002816D12046FDF7A4FDFC
:10453000A563012184F83410062801D005280BD189
:104540002068FFF7DFFDA16B0843A063A06B002884
:10455000204602D0FDF750FC70BDFDF78DFC70BD0C
:10456000806B0068C16B41F48071C163704770B5A6
:10457000846B0025206C00B12564E06B002816D107
:104580002046FDF779FDA563012184F83410062843
:1045900001D005280BD12068FFF7B4FDA16B0843BB
:1045A000A063A06B0028204602D0FDF725FC70BD5B
:1045B000FDF762FC70BD2DE9F04F89B00E46044650
:1045C000FCF798FD00258346009501952F460821AC
:1045D0002068FFF749FC002834D1B4F850000104EA
:1045E0002068FFF70DFC00282CD1401E4FF0080872
:1045F000CDE9020830204FF00209CDE9040901207D
:10460000CDE9067002A92068FFF7A9FB2068FFF733
:1046100030FD002816D1EA4640F22A472068416B57
:10462000394212D1416B890204D5FFF7D1FB4AF818
:1046300025006D1CFCF75EFDA0EB0B00401CEDD1CE
:104640004FF0004009B0BDE8F08F416B090703D57A
:10465000C0F838800820F5E7416B890703D5C0F81A
:1046600038900220EEE7416B890603D52021816353
:104670000846E7E740F2FF518163009800BA706096
:10468000019800BA30600020DCE710B590B0044615
:104690000120ADF838002068FFF773FB002864D0D4
:1046A000606C032842D02068FFF7B7FC00285AD17D
:1046B00000212068FFF769FB606704212068FFF78D
:1046C00064FBA06708212068FFF75FFBE0670C210F
:1046D0002068FFF75AFBC4F88000606C032825D0DF
:1046E0000EA92068FFF7F6FC00283CD1606C032877
:1046F0001CD0BDF83800206501042068FFF7A3FC3A
:10470000002830D100212068FFF73FFB60660421BC
:104710002068FFF73AFBA06608212068FFF735FB09
:10472000E0660C212068FFF730FB20670421206839
:10473000FFF72BFB000DE06403A92046FDF79DFB6E
:10474000B4F85000002302042068FFF74DFC002855
:1047500009D104F1100007C88DE8070094E80F00A4
:10476000FFF720FB002010B010BD4FF08060FAE78B
:104770002DE9F8430025044600950068FFF7A6FBE5
:1047800000281AD12068FFF7C9FB4FF080784FF658
:10479000FF76D8B14FF08057A5640098411C009176
:1047A000B0421AD000212068FFF72AFB20B900216F
:1047B0002068FFF73FFB10B13846BDE8F8830021C1
:1047C0002068FFF7E2FAC00FE7D01FE00127A764D7
:1047D0000098411C0091B04201D14046EDE7002114
:1047E0002068FFF70DFB0028E7D14FF080412068DB
:1047F000FFF720FB0028E0D100212068FFF7C5FA71
:10480000C10FE5D0400001D5676400E06564002079
:10481000D3E71CB5044600200090019000212068D9
:10482000FFF7B3FA800102D54FF400601CBD694662
:104830002046FFF7C0FE0028F8D10198C0030CD530
:10484000B4F8500001042068FFF7DAFA0028EDD12F
:1048500000212068FFF721FB1CBD4FF080601CBDCC
:104860001CB5044600200090019000212068FFF74D
:104870008CFA800102D54FF400601CBD69462046C9
:10488000FFF799FE0028F8D1019840030CD5B4F841
:10489000500001042068FFF7B3FA0028EDD102218F
:1048A0002068FFF7FAFA1CBD4FF080601CBD0000C5
:1048B0007CB50E4C05460120207000F054FF98B1E5
:1048C000FBF794FD18B92846FFF7CCFD207020783F
:1048D000012809D00649D1E90001CDE900010021F4
:1048E000684600F05AFF606020787CBD0C00002014
:1048F000BC6B000810B5124888B014460078C00799
:1049000002D0032008B010BDC1B1012905D0022991
:1049100008D003290CD00420F4E76846FBF754FDC7
:1049200006980AE06846FBF74FFD0798208005E0EF
:104930006846FBF749FD0798400A20600020E1E740
:104940000C0000203EB51546084601241A462946AB
:10495000FBF766FDC8B90F4847F230552A46416853
:10496000684600F01FFFDDE9001010290DD1012875
:104970000BD100F006FF054403E000BFFBF72AFD62
:1049800028B100F0FEFEA842F8D320463EBD002428
:10499000FBE700000C000020FFF764BD3EB51546A4
:1049A000084601241A462946FBF752FDC8B90F48AC
:1049B00047F230552A464168684600F0F3FEDDE9CB
:1049C000001010290DD102280BD100F0DAFE0544A9
:1049D00003E000BFFBF7FEFC28B100F0D2FEA842C6
:1049E000F8D320463EBD0024FBE700000C00002069
:1049F00038B50B46009204460022802100F008F8EA
:104A0000002804D0606D40F020006065032038BDB0
:104A10002DE9F0411D4617460E460446DDF8188084
:104A200035E0681C33D02DB1FCF764FBA0EB080027
:104A3000A8422CD32068416821F0E0014160606801
:104A4000B0F5827F0BD1A068B0F5004F02D0B0F571
:104A5000806F04D12068016821F040010160A06AE4
:104A6000B0F5005F0AD1206801684DF6FF72114071
:104A700001602068016841F400510160012084F860
:104A80005100002084F850000320BDE8F081206828
:104A9000806836EA000004D00020B842C1D100206E
:104AA000F3E70120F9E7000008A000F023FA40F244
:104AB000EE2000F051FE0A4D4FF480542146284666
:104AC000FCF70FFBC82000F047FEF7E7446562756E
:104AD00067205461736B20537461727465640000C5
:104AE000000C0240FEF788FE08A000F003FA4FF425
:104AF000FA7000F031FE0B4C4FF47A75802120469D
:104B0000FCF7EFFA284600F027FEF7E744656661F8
:104B1000756C74205461736B205374617274656496
:104B2000000000000018024000F0B6BE30B530486A
:104B30009FB00025016841F080510160006800F0DD
:104B400080501D902B48016841F44041016000688D
:104B5000022400F440401D90052000904FF4803066
:104B60000190012002908005CDE9064019200890AF
:104B70004FF4B470CDE9090408200B906846FCF7A7
:104B8000E3FE00B1FEE7FCF77DFC00B1FEE718A9EB
:104B90000F2081E831004FF4A0501B904FF480505B
:104BA0001C90052118A8FCF7BFFD00B1FEE72820E6
:104BB0000C90C6201090032012904FF48070CDE925
:104BC00015500CA8FCF796FC00B1FEE7FCF764FE5C
:104BD0004FF47A71B0FBF1F0FDF7D4FF0420FDF73C
:104BE000C5FF00220F21501EFCF71AFC1FB030BD7C
:104BF00040380240007000401048016841F47001E4
:104C000001600F48016841F0010101600C4A002178
:104C10000832116002680B4B1A400260031D0A4AF9
:104C20001A60026822F48022026005480C3001609C
:104C300002495806803908607047000088ED00E09E
:104C400000380240FFFFF6FE103000240148FEF756
:104C500000B80000B4510020F0B50268234B244D89
:104C6000244E254F254C4FF0804C984209D060458A
:104C700007D0A84205D0B04203D0B84201D0A0422C
:104C800004D122F0700E4A6842EA0E0298421BD00C
:104C9000604519D0A84217D0B04215D0B84213D001
:104CA000A04211D0164DA8420ED0164DA8420BD0EE
:104CB000154DA84208D0154DA84205D0144DA84264
:104CC00002D0144DA84203D122F44075CA682A4389
:104CD00002608A68C2620A688262984201D0A04279
:104CE00001D10969016301214161F0BD000001406A
:104CF0000004004000080040000C00400004014097
:104D000000400140004401400048014000180040BC
:104D1000001C00400020004010B50123046A8B40B5
:104D20009C430462036A8A401343036210BD00007F
:104D300030B5026A22F001020262026A43688469A5
:104D40000D6824F07304254322F002048A6822438C
:104D50000B4CA04202D00B4CA0420BD122F0080415
:104D6000CA6823F4407322434C6922F004021C43B6
:104D70008B6923434360856149684163026230BDAA
:104D8000000001400004014030B5026A22F0100228
:104D90000262026A436884690D6824F4E64444EAC6
:104DA00005248D6822F0200242EA05120D4DA8422A
:104DB00002D00D4DA8420ED1CD6822F0800242EA09
:104DC00005124D6923F4406343EA85038D6922F09F
:104DD000400243EA8503436084614968816302625B
:104DE00030BD0000000001400004014030B5026AFF
:104DF00022F480720262036A4268C46923F4007379
:104E000024F073050C682C438D6843EA05230D4D8F
:104E1000A84202D00C4DA8420ED1CD6823F4006305
:104E200043EA05234D6922F4405242EA05128D6996
:104E300023F4806342EA05124260C4614968C16399
:104E4000036230BD000001400004014030B5026A39
:104E500022F480520262046A4268C3690D6823F436
:104E6000E64343EA05238D6824F4005444EA0534FC
:104E7000084DA84202D0084DA84204D14D6922F441
:104E8000804242EA85124260C3614968016404625B
:104E900030BD0000000001400004014008B56A4632
:104EA000042148F24010FBF70FFD9DF8000039285F
:104EB00001D0012008BD002008BD000010B5044647
:104EC000FBF731FA2146C2B2BDE810403223014857
:104ED000FEF772B94051002010B50C46FFF7EEFF07
:104EE000204600F023F8BDE8104001A000F002B811
:104EF0000000000000B5A1B00022694603E08B5419
:104F0000521CD2B2401C0378002BF8D10D208854DB
:104F100011440A204870322369460348921CFEF768
:104F20004BF921B000BD0000405100201FB50246E2
:104F300006A1684600F0BAFA6846FBF7F4F9C2B277
:104F4000322369460248FEF737F91FBD2575000078
:104F50004051002010B5806B0021C185C184FEF74F
:104F600006F810BD0168CA6822F49072CA60016830
:104F70004A6922F001024A61202180F83A10704704
:104F800010B590F83A10222901D0022010BD816896
:104F9000B1F5805F11D00169002901681FD049680F
:104FA00001F07F03816A4A1C82620B70C18D491E29
:104FB0000904090CC18518D026E00269816A002A1B
:104FC0000268526805D0D2B20A80816A491C8162A7
:104FD000ECE7C2F308020A80816A891CF7E74A6895
:104FE000816A4B1C83620A70E0E70168CA6822F498
:104FF0009072CA6001684A6922F001024A61202168
:1050000080F83A10FEF7C6F8002010BD70B5074CC6
:105010002078002809D0064900250D5405A0FFF787
:105020004DFF0348FFF766FF257070BD4400002068
:10503000805100205265763A000000002DE9F041D1
:1050400004460068016921F44052E168114301619E
:105050002168C86849F20C6290432369A268E56937
:105060001A4363692B431A430243CA6021684869A3
:1050700020F44072A06910434861E1696425B1F5EC
:10508000004F9748974A21684FF032083FD091422D
:1050900001D081427CD1FCF715FC00EBC00101EB93
:1050A000001061688900B0FBF1F6FCF70BFC00EB27
:1050B000C00101EB001061688900B0FBF1F0B0FBAA
:1050C000F5F06FF01801484306EB800108EB011082
:1050D000B0FBF5F000F0F006FCF7F4FB00EBC001CC
:1050E00001EB001061688900B0FBF1F0B0FBF5F056
:1050F00006EB0016FCF7E6FB00EBC00101EB00102D
:1051000061688900B0FBF1F7FCF7DCFBD2E091426B
:1051100001D081423DD1FCF7D5FB00EBC00101EB92
:10512000001061684900B0FBF1F0B0FBF5F006013A
:10513000FCF7C8FB00EBC00101EB001061684900FF
:10514000B0FBF1F7FCF7BEFB00EBC00101EB001078
:1051500061684900B0FBF1F0B0FBF5F06FF01801A9
:10516000484307EB800108EBC100B0FBF5F000F00D
:10517000F80006EB4006FCF7A5FB00EBC00101EBD5
:10518000001061684900B0FBF1F7FCF79BFB3CE0C5
:1051900055E0FCF787FB00EBC00101EB00106168F4
:1051A0004900B0FBF1F0B0FBF5F00601FCF77AFB2B
:1051B00000EBC00101EB001061684900B0FBF1F7A2
:1051C000FCF770FB00EBC00101EB001061684900C7
:1051D000B0FBF1F0B0FBF5F06FF01801484307EBBE
:1051E000800108EBC100B0FBF5F000F0F80006EB21
:1051F0004006FCF757FB00EBC00101EB00106168B3
:105200004900B0FBF1F7FCF74DFB00EBC00101EBEF
:10521000001061684900B0FBF1F0B0FBF5F06FF0F1
:105220001801484307EB800108EBC100B0FBF5F023
:1052300000F00700216830448860BDE8F081FCF789
:1052400031FB00EBC00101EB001061688900B0FB8D
:10525000F1F6FCF727FB00EBC00101EB00106168E1
:105260008900B0FBF1F0B0FBF5F06FF01801484396
:1052700006EB800108EB0110B0FBF5F000F0F00642
:10528000FCF710FB00EBC00101EB00106168890026
:10529000B0FBF1F0B0FBF5F006EB0016FCF702FBFB
:1052A00000EBC00101EB001061688900B0FBF1F771
:1052B000FCF7F8FA00EBC00101EB0010616889000F
:1052C000B0FBF1F0B0FBF5F06FF01801484307EBCD
:1052D000800108EB0110B0FBF5F000F00F00A9E72A
:1052E000001401400010014090F83910212901D02C
:1052F000022070478168B1F5805F016A0BD04A1CBB
:105300000262026809785160C18C491E0904090CC7
:10531000C1840ED017E009880268C1F3080151600A
:1053200001690029016A02D0491C0162ECE7891C6D
:10533000FBE70168CA6822F08002CA600068C168A1
:1053400041F04001C160002070472DE9F0419846CE
:1053500017460E460446069D1DE0681C1BD02DB165
:10536000FBF7C8FEA0EB0800A84214D92068C1686A
:1053700021F4D071C1602068416921F001014161CF
:10538000202084F8390084F83A00002084F838009E
:105390000320BDE8F0812068006836EA000004D0F0
:1053A0000020B842D9D00020F3E70120F9E700003F
:1053B000084882B000680168C943C90606D401687C
:1053C00040680090034802B0FFF720BE014802B0D9
:1053D000FDF7CEBD4051002010B5064C01202070D5
:1053E000FBF778F818B9207820F0010020702078B9
:1053F00010BD00001E00002081B101290BD0022940
:1054000003D0032904D0042070474FF4007000E05B
:105410000820108002E04FF48040106000207047A8
:105420002DE9F0411C0015460E464FF001070ED045
:105430004FF40078690242463046FBF76BF830B90A
:105440000027641E05F1010506F50076F2D1384605
:10545000BDE8F08110B5064C01202070FBF710F874
:1054600018B9207820F001002070207810BD0000CD
:105470001E0000202DE9F0411C0015460E464FF09D
:1054800001070ED04FF40078690242463046FBF720
:1054900071F830B90027641E05F1010506F50076A4
:1054A000F2D13846BDE8F081FEE7FEE70FB4084BC5
:1054B00010B504A902AA039800F01CF8044602A93A
:1054C000002000F0C1F8204610BC5DF814FB00007D
:1054D0004956000802E008C8121F08C1002AFAD184
:1054E00070477047002001E001C1121F002AFBD164
:1054F000704700002DE9FF4F89B09B460446002508
:1055000006E025280BD05A460B999047641C6D1C69
:1055100020780028F5D10DB02846BDE8F08F00278F
:10552000B8460122474900E0074314F8013F203BF9
:1055300002FA03F00842F7D120782E2819D114F886
:10554000010F47F004072A280ED06FF02F022078B1
:10555000A0F1300109290CD808EB880102EB4101C8
:1055600000EB0108641CF2E70A98641C50F8048BF5
:105570000A9020780028CED0642808D0692806D068
:1055800075281ED05A460B9990476D1C58E00A9911
:105590004FF00A0901C90A91002802DA40422D2180
:1055A00002E0390504D52B218DF82010012103E0FC
:1055B000F90704D02021F7E78A4608AE0DE0002164
:1055C000FAE70A994FF00A0901C90A91F7E7494633
:1055D000FAF7B0FE303106F8011D0028F7D1ADEB27
:1055E000060000F12009780701D44FF00108C845F2
:1055F00002DDA8EB090000E000208046002706E05D
:1056000008A85A46C05D0B9990476D1C7F1C5745F2
:10561000F6DB04E030205A460B9990476D1CB8F138
:105620000001A8F10108F5DC05E016F8010B5A4667
:105630000B9990476D1CB9F10001A9F10109F4DC47
:10564000641C65E7092801000A68531C0B60107090
:105650007047EFF30580002800D00120704700005C
:10566000FBF756FDFFF762FAFEF734F9FEF77CF818
:10567000FEF77CFAFEF79EFAFEF71CFBFEF72AF80F
:10568000FEF7A8FAFEF7D4FAFEF740F8FEF7C8F8DE
:10569000FEF70AFA012220492048FDF757FD20A015
:1056A000FFF728FCFFF7FAFB04212148FDF738FC3F
:1056B000012280211F48FBF718FD1F4900221F4BC4
:1056C00008460F24521C20F8024B9A42FAD30020BD
:1056D00040F2DF1302464FF4704C4FF47F654FF4F5
:1056E00048765F1C14E0002290B1A04200D10D80EA
:1056F000891C521CB242F7D3401C80B2B842F2D38C
:105700000FA0FFF7E9FBFEF7C7F800F035F8FEE75A
:10571000A1F800C01C46EBE74500002040510020E6
:105720005541525431204F70656E2E2E2E000000D0
:1057300004510020001802400000D0D000DC050019
:105740005652416D20656E643A000000014600200B
:10575000842900D0C81C704710B500B9012000F0A2
:1057600057FC002010BD10B501F0B6F8012801D09B
:10577000012010BD002010BD10B500F0E1FC00209C
:1057800010BD10B5FFF765FF18B1BDE8104001F07E
:10579000B7B8BDE8104001F0ADB803C8002200F072
:1057A000BFBD00002DE9FF410D004FF00006CDE91F
:1057B000016507461ED000240396501C1FD002B17D
:1057C0001446FFF746FF69464FF01008E8B103AAF8
:1057D0002846091D00F0D0FF012813D00096039839
:1057E000F0B115494FF080500860BFF34F8FBFF301
:1057F0006F8F15E0802031462A46009012E04FF06E
:10580000FF34DEE7CDF80080E9E700232246284692
:10581000091D00F0A9FD012808D054B140200090D6
:105820009DE8070087E80700BDE8FF81CDF800800C
:10583000F6E70020F3E7000004ED00E037B5054689
:1058400082B000200090140000D10124FFF701FF76
:105850004FF0000388B16A4603A9284600F02EFFE6
:10586000012811D1009890B10A494FF0805008608A
:10587000BFF34F8FBFF36F8F09E0224603A928467D
:1058800000F06CFE012802D0FF2005B030BD0020E2
:10589000FBE7000004ED00E010B501F01DF8012861
:1058A00003D0BDE8104000F025BD10BD3EB5044654
:1058B0000D46B0F90800FFF749FF02A9CDE9000144
:1058C000208A2B4682B2D4E9001000F0D9FF0128CB
:1058D00001D000203EBD02983EBD00002DE9F04100
:1058E000184C0F460546E6682068001D00F0B0FA27
:1058F00038B9206890F82C10012088402169814334
:105900002161681C07D137B12168BDE8F0410E481C
:10591000091D00F0D5BA20683544B54245602168BC
:1059200005D2A06BBDE8F041091D00F0B1BA606B73
:10593000091D00F0ADFAA06A854200D2A562BDE85B
:10594000F08100007C000020DC8E00202DE9F04179
:10595000054600F0C1FA2E4CA068401CA0602068EB
:105960002C4F10B1606940B32DE02560A06801287C
:1059700029D1002606EB860007EB800000F07AFABA
:10598000761C072EF6D323488C3000F073FA21489A
:10599000A03000F06FFA1F48B43000F06BFA1D48D9
:1059A000C83000F067FA1B48DC3000F063FA194891
:1059B0008C3060631430A06305E02068E96AC06A37
:1059C000884200D82560606A401C6062E96A012054
:1059D000226988401043206101EB810007EB8000C1
:1059E000291D00F06DFA00F097FA606900280CD0CC
:1059F0002068E96AC06A884207D207494FF08050A0
:105A00000860BFF34F8FBFF36F8FBDE8F0810000D8
:105A10007C000020008E002004ED00E070B5114EE7
:105A2000114C17E000F0C0FB3068B8B101F05AF833
:105A300000F052FAF068C568281D00F009FAA06865
:105A4000401EA0606068401E606000F065FA284655
:105A500000F055F860680028E4D170BD01F042F80C
:105A6000F8E70000C88E00207C00002030B4026CF3
:105A70000B46002A0BD0C1681144C1604468A142A2
:105A800001D30168C16030BC1846FAF73ABC30BC9B
:105A900070472DE9F041856B174604460026026CDD
:105AA00082B1C7B1E068FAF72CFCE168206C091AF2
:105AB000E1602268914202D26168081AE060022F18
:105AC00016D017E02068A8B9606800F085FF064688
:105AD000002060600EE0A068FAF713FC216CA0685B
